{
  "_format": "hh-sol-artifact-1",
  "contractName": "VKEvent",
  "sourceName": "contracts/VKEvent.sol",
  "abi": [
    {
      "inputs": [
        {
          "internalType": "string",
          "name": "name",
          "type": "string"
        },
        {
          "internalType": "string",
          "name": "symbol",
          "type": "string"
        },
        {
          "internalType": "uint256",
          "name": "_eventId",
          "type": "uint256"
        },
        {
          "internalType": "uint256",
          "name": "_price",
          "type": "uint256"
        },
        {
          "internalType": "uint256",
          "name": "_maxTicketPurchase",
          "type": "uint256"
        },
        {
          "internalType": "uint256",
          "name": "_maxTickets",
          "type": "uint256"
        },
        {
          "internalType": "string",
          "name": "_baseUri",
          "type": "string"
        }
      ],
      "stateMutability": "nonpayable",
      "type": "constructor"
    },
    {
      "anonymous": false,
      "inputs": [
        {
          "indexed": true,
          "internalType": "address",
          "name": "owner",
          "type": "address"
        },
        {
          "indexed": true,
          "internalType": "address",
          "name": "approved",
          "type": "address"
        },
        {
          "indexed": true,
          "internalType": "uint256",
          "name": "tokenId",
          "type": "uint256"
        }
      ],
      "name": "Approval",
      "type": "event"
    },
    {
      "anonymous": false,
      "inputs": [
        {
          "indexed": true,
          "internalType": "address",
          "name": "owner",
          "type": "address"
        },
        {
          "indexed": true,
          "internalType": "address",
          "name": "operator",
          "type": "address"
        },
        {
          "indexed": false,
          "internalType": "bool",
          "name": "approved",
          "type": "bool"
        }
      ],
      "name": "ApprovalForAll",
      "type": "event"
    },
    {
      "anonymous": false,
      "inputs": [
        {
          "indexed": false,
          "internalType": "address",
          "name": "minter",
          "type": "address"
        },
        {
          "indexed": false,
          "internalType": "uint256",
          "name": "tokenID",
          "type": "uint256"
        },
        {
          "indexed": false,
          "internalType": "string",
          "name": "tokenURI",
          "type": "string"
        }
      ],
      "name": "NftMinted",
      "type": "event"
    },
    {
      "anonymous": false,
      "inputs": [
        {
          "indexed": true,
          "internalType": "address",
          "name": "previousOwner",
          "type": "address"
        },
        {
          "indexed": true,
          "internalType": "address",
          "name": "newOwner",
          "type": "address"
        }
      ],
      "name": "OwnershipTransferred",
      "type": "event"
    },
    {
      "anonymous": false,
      "inputs": [
        {
          "indexed": true,
          "internalType": "address",
          "name": "from",
          "type": "address"
        },
        {
          "indexed": true,
          "internalType": "address",
          "name": "to",
          "type": "address"
        },
        {
          "indexed": true,
          "internalType": "uint256",
          "name": "tokenId",
          "type": "uint256"
        }
      ],
      "name": "Transfer",
      "type": "event"
    },
    {
      "inputs": [
        {
          "internalType": "address",
          "name": "to",
          "type": "address"
        },
        {
          "internalType": "uint256",
          "name": "tokenId",
          "type": "uint256"
        }
      ],
      "name": "approve",
      "outputs": [],
      "stateMutability": "nonpayable",
      "type": "function"
    },
    {
      "inputs": [
        {
          "internalType": "address",
          "name": "owner",
          "type": "address"
        }
      ],
      "name": "balanceOf",
      "outputs": [
        {
          "internalType": "uint256",
          "name": "",
          "type": "uint256"
        }
      ],
      "stateMutability": "view",
      "type": "function"
    },
    {
      "inputs": [],
      "name": "baseURI",
      "outputs": [
        {
          "internalType": "string",
          "name": "",
          "type": "string"
        }
      ],
      "stateMutability": "view",
      "type": "function"
    },
    {
      "inputs": [
        {
          "internalType": "uint256",
          "name": "numberOfTickets",
          "type": "uint256"
        }
      ],
      "name": "buyTickets",
      "outputs": [],
      "stateMutability": "payable",
      "type": "function"
    },
    {
      "inputs": [],
      "name": "eventId",
      "outputs": [
        {
          "internalType": "uint256",
          "name": "",
          "type": "uint256"
        }
      ],
      "stateMutability": "view",
      "type": "function"
    },
    {
      "inputs": [],
      "name": "flipSaleState",
      "outputs": [],
      "stateMutability": "nonpayable",
      "type": "function"
    },
    {
      "inputs": [
        {
          "internalType": "uint256",
          "name": "tokenId",
          "type": "uint256"
        }
      ],
      "name": "getApproved",
      "outputs": [
        {
          "internalType": "address",
          "name": "",
          "type": "address"
        }
      ],
      "stateMutability": "view",
      "type": "function"
    },
    {
      "inputs": [
        {
          "internalType": "address",
          "name": "owner",
          "type": "address"
        },
        {
          "internalType": "address",
          "name": "operator",
          "type": "address"
        }
      ],
      "name": "isApprovedForAll",
      "outputs": [
        {
          "internalType": "bool",
          "name": "",
          "type": "bool"
        }
      ],
      "stateMutability": "view",
      "type": "function"
    },
    {
      "inputs": [],
      "name": "maxTicketPurchase",
      "outputs": [
        {
          "internalType": "uint256",
          "name": "",
          "type": "uint256"
        }
      ],
      "stateMutability": "view",
      "type": "function"
    },
    {
      "inputs": [],
      "name": "maxTickets",
      "outputs": [
        {
          "internalType": "uint256",
          "name": "",
          "type": "uint256"
        }
      ],
      "stateMutability": "view",
      "type": "function"
    },
    {
      "inputs": [],
      "name": "name",
      "outputs": [
        {
          "internalType": "string",
          "name": "",
          "type": "string"
        }
      ],
      "stateMutability": "view",
      "type": "function"
    },
    {
      "inputs": [],
      "name": "owner",
      "outputs": [
        {
          "internalType": "address",
          "name": "",
          "type": "address"
        }
      ],
      "stateMutability": "view",
      "type": "function"
    },
    {
      "inputs": [
        {
          "internalType": "uint256",
          "name": "tokenId",
          "type": "uint256"
        }
      ],
      "name": "ownerOf",
      "outputs": [
        {
          "internalType": "address",
          "name": "",
          "type": "address"
        }
      ],
      "stateMutability": "view",
      "type": "function"
    },
    {
      "inputs": [],
      "name": "price",
      "outputs": [
        {
          "internalType": "uint256",
          "name": "",
          "type": "uint256"
        }
      ],
      "stateMutability": "view",
      "type": "function"
    },
    {
      "inputs": [],
      "name": "renounceOwnership",
      "outputs": [],
      "stateMutability": "nonpayable",
      "type": "function"
    },
    {
      "inputs": [
        {
          "internalType": "uint256",
          "name": "numberOfTickets",
          "type": "uint256"
        }
      ],
      "name": "reserveTickets",
      "outputs": [],
      "stateMutability": "nonpayable",
      "type": "function"
    },
    {
      "inputs": [
        {
          "internalType": "address",
          "name": "from",
          "type": "address"
        },
        {
          "internalType": "address",
          "name": "to",
          "type": "address"
        },
        {
          "internalType": "uint256",
          "name": "tokenId",
          "type": "uint256"
        }
      ],
      "name": "safeTransferFrom",
      "outputs": [],
      "stateMutability": "nonpayable",
      "type": "function"
    },
    {
      "inputs": [
        {
          "internalType": "address",
          "name": "from",
          "type": "address"
        },
        {
          "internalType": "address",
          "name": "to",
          "type": "address"
        },
        {
          "internalType": "uint256",
          "name": "tokenId",
          "type": "uint256"
        },
        {
          "internalType": "bytes",
          "name": "data",
          "type": "bytes"
        }
      ],
      "name": "safeTransferFrom",
      "outputs": [],
      "stateMutability": "nonpayable",
      "type": "function"
    },
    {
      "inputs": [],
      "name": "saleIsActive",
      "outputs": [
        {
          "internalType": "bool",
          "name": "",
          "type": "bool"
        }
      ],
      "stateMutability": "view",
      "type": "function"
    },
    {
      "inputs": [
        {
          "internalType": "address",
          "name": "operator",
          "type": "address"
        },
        {
          "internalType": "bool",
          "name": "approved",
          "type": "bool"
        }
      ],
      "name": "setApprovalForAll",
      "outputs": [],
      "stateMutability": "nonpayable",
      "type": "function"
    },
    {
      "inputs": [
        {
          "internalType": "uint256",
          "name": "_price",
          "type": "uint256"
        }
      ],
      "name": "setPrice",
      "outputs": [],
      "stateMutability": "nonpayable",
      "type": "function"
    },
    {
      "inputs": [
        {
          "internalType": "bytes4",
          "name": "interfaceId",
          "type": "bytes4"
        }
      ],
      "name": "supportsInterface",
      "outputs": [
        {
          "internalType": "bool",
          "name": "",
          "type": "bool"
        }
      ],
      "stateMutability": "view",
      "type": "function"
    },
    {
      "inputs": [],
      "name": "symbol",
      "outputs": [
        {
          "internalType": "string",
          "name": "",
          "type": "string"
        }
      ],
      "stateMutability": "view",
      "type": "function"
    },
    {
      "inputs": [
        {
          "internalType": "uint256",
          "name": "tokenId",
          "type": "uint256"
        }
      ],
      "name": "tokenURI",
      "outputs": [
        {
          "internalType": "string",
          "name": "",
          "type": "string"
        }
      ],
      "stateMutability": "view",
      "type": "function"
    },
    {
      "inputs": [
        {
          "internalType": "address",
          "name": "from",
          "type": "address"
        },
        {
          "internalType": "address",
          "name": "to",
          "type": "address"
        },
        {
          "internalType": "uint256",
          "name": "tokenId",
          "type": "uint256"
        }
      ],
      "name": "transferFrom",
      "outputs": [],
      "stateMutability": "nonpayable",
      "type": "function"
    },
    {
      "inputs": [
        {
          "internalType": "address",
          "name": "newOwner",
          "type": "address"
        }
      ],
      "name": "transferOwnership",
      "outputs": [],
      "stateMutability": "nonpayable",
      "type": "function"
    },
    {
      "inputs": [],
      "name": "withdraw",
      "outputs": [],
      "stateMutability": "nonpayable",
      "type": "function"
    }
  ],
  "bytecode": "0x60a06040526000600b60006101000a81548160ff0219169083151502179055503480156200002c57600080fd5b5060405162003c2438038062003c2483398181016040528101906200005291906200039f565b86868160009081620000659190620006f0565b508060019081620000779190620006f0565b5050506200009a6200008e620000ed60201b60201c565b620000f560201b60201c565b8460808181525050836008819055508260098190555081600a8190555080600c9081620000c89190620006f0565b50620000e06007620001bb60201b620010b11760201c565b50505050505050620007d7565b600033905090565b6000600660009054906101000a900473ffffffffffffffffffffffffffffffffffffffff16905081600660006101000a81548173ffffffffffffffffffffffffffffffffffffffff021916908373ffffffffffffffffffffffffffffffffffffffff1602179055508173ffffffffffffffffffffffffffffffffffffffff168173ffffffffffffffffffffffffffffffffffffffff167f8be0079c531659141344cd1fd0a4f28419497f9722a3daafe3b4186f6b6457e060405160405180910390a35050565b6001816000016000828254019250508190555050565b6000604051905090565b600080fd5b600080fd5b600080fd5b600080fd5b6000601f19601f8301169050919050565b7f4e487b7100000000000000000000000000000000000000000000000000000000600052604160045260246000fd5b6200023a82620001ef565b810181811067ffffffffffffffff821117156200025c576200025b62000200565b5b80604052505050565b600062000271620001d1565b90506200027f82826200022f565b919050565b600067ffffffffffffffff821115620002a257620002a162000200565b5b620002ad82620001ef565b9050602081019050919050565b60005b83811015620002da578082015181840152602081019050620002bd565b60008484015250505050565b6000620002fd620002f78462000284565b62000265565b9050828152602081018484840111156200031c576200031b620001ea565b5b62000329848285620002ba565b509392505050565b600082601f830112620003495762000348620001e5565b5b81516200035b848260208601620002e6565b91505092915050565b6000819050919050565b620003798162000364565b81146200038557600080fd5b50565b60008151905062000399816200036e565b92915050565b600080600080600080600060e0888a031215620003c157620003c0620001db565b5b600088015167ffffffffffffffff811115620003e257620003e1620001e0565b5b620003f08a828b0162000331565b975050602088015167ffffffffffffffff811115620004145762000413620001e0565b5b620004228a828b0162000331565b9650506040620004358a828b0162000388565b9550506060620004488a828b0162000388565b94505060806200045b8a828b0162000388565b93505060a06200046e8a828b0162000388565b92505060c088015167ffffffffffffffff811115620004925762000491620001e0565b5b620004a08a828b0162000331565b91505092959891949750929550565b600081519050919050565b7f4e487b7100000000000000000000000000000000000000000000000000000000600052602260045260246000fd5b600060028204905060018216806200050257607f821691505b602082108103620005185762000517620004ba565b5b50919050565b60008190508160005260206000209050919050565b60006020601f8301049050919050565b600082821b905092915050565b600060088302620005827fffffffffffffffffffffffffffffffffffffffffffffffffffffffffffffffff8262000543565b6200058e868362000543565b95508019841693508086168417925050509392505050565b6000819050919050565b6000620005d1620005cb620005c58462000364565b620005a6565b62000364565b9050919050565b6000819050919050565b620005ed83620005b0565b62000605620005fc82620005d8565b84845462000550565b825550505050565b600090565b6200061c6200060d565b62000629818484620005e2565b505050565b5b8181101562000651576200064560008262000612565b6001810190506200062f565b5050565b601f821115620006a0576200066a816200051e565b620006758462000533565b8101602085101562000685578190505b6200069d620006948562000533565b8301826200062e565b50505b505050565b600082821c905092915050565b6000620006c560001984600802620006a5565b1980831691505092915050565b6000620006e08383620006b2565b9150826002028217905092915050565b620006fb82620004af565b67ffffffffffffffff81111562000717576200071662000200565b5b620007238254620004e9565b6200073082828562000655565b600060209050601f83116001811462000768576000841562000753578287015190505b6200075f8582620006d2565b865550620007cf565b601f19841662000778866200051e565b60005b82811015620007a2578489015182556001820191506020850194506020810190506200077b565b86831015620007c25784890151620007be601f891682620006b2565b8355505b6001600288020188555050505b505050505050565b60805161342a620007fa600039600081816107f70152611962015261342a6000f3fe60806040526004361061019c5760003560e01c806370a08231116100ec578063a22cb4651161008a578063d42b7afd11610064578063d42b7afd14610581578063e985e9c5146105aa578063eb8d2444146105e7578063f2fde38b146106125761019c565b8063a22cb465146104f2578063b88d4fde1461051b578063c87b56dd146105445761019c565b806391b7f5ed116100c657806391b7f5ed1461044857806395d89b41146104715780639b8947031461049c578063a035b1fe146104c75761019c565b806370a08231146103c9578063715018a6146104065780638da5cb5b1461041d5761019c565b80632f3666371161015957806342842e0e1161013357806342842e0e1461030d57806359a0f9e3146103365780636352211e146103615780636c0360eb1461039e5761019c565b80632f366637146102c357806334918dfd146102df5780633ccfd60b146102f65761019c565b806301ffc9a7146101a157806306fdde03146101de578063081812fc14610209578063089cdd0c14610246578063095ea7b31461027157806323b872dd1461029a575b600080fd5b3480156101ad57600080fd5b506101c860048036038101906101c391906121e5565b61063b565b6040516101d5919061222d565b60405180910390f35b3480156101ea57600080fd5b506101f361071d565b60405161020091906122d8565b60405180910390f35b34801561021557600080fd5b50610230600480360381019061022b9190612330565b6107af565b60405161023d919061239e565b60405180910390f35b34801561025257600080fd5b5061025b6107f5565b60405161026891906123c8565b60405180910390f35b34801561027d57600080fd5b506102986004803603810190610293919061240f565b610819565b005b3480156102a657600080fd5b506102c160048036038101906102bc919061244f565b610930565b005b6102dd60048036038101906102d89190612330565b610990565b005b3480156102eb57600080fd5b506102f4610b0a565b005b34801561030257600080fd5b5061030b610b3e565b005b34801561031957600080fd5b50610334600480360381019061032f919061244f565b610b95565b005b34801561034257600080fd5b5061034b610bb5565b60405161035891906123c8565b60405180910390f35b34801561036d57600080fd5b5061038860048036038101906103839190612330565b610bbb565b604051610395919061239e565b60405180910390f35b3480156103aa57600080fd5b506103b3610c41565b6040516103c091906122d8565b60405180910390f35b3480156103d557600080fd5b506103f060048036038101906103eb91906124a2565b610ccf565b6040516103fd91906123c8565b60405180910390f35b34801561041257600080fd5b5061041b610d86565b005b34801561042957600080fd5b50610432610d9a565b60405161043f919061239e565b60405180910390f35b34801561045457600080fd5b5061046f600480360381019061046a9190612330565b610dc4565b005b34801561047d57600080fd5b50610486610dd6565b60405161049391906122d8565b60405180910390f35b3480156104a857600080fd5b506104b1610e68565b6040516104be91906123c8565b60405180910390f35b3480156104d357600080fd5b506104dc610e6e565b6040516104e991906123c8565b60405180910390f35b3480156104fe57600080fd5b50610519600480360381019061051491906124fb565b610e74565b005b34801561052757600080fd5b50610542600480360381019061053d9190612670565b610e8a565b005b34801561055057600080fd5b5061056b60048036038101906105669190612330565b610eec565b60405161057891906122d8565b60405180910390f35b34801561058d57600080fd5b506105a860048036038101906105a39190612330565b610f54565b005b3480156105b657600080fd5b506105d160048036038101906105cc91906126f3565b610f87565b6040516105de919061222d565b60405180910390f35b3480156105f357600080fd5b506105fc61101b565b604051610609919061222d565b60405180910390f35b34801561061e57600080fd5b50610639600480360381019061063491906124a2565b61102e565b005b60007f80ac58cd000000000000000000000000000000000000000000000000000000007bffffffffffffffffffffffffffffffffffffffffffffffffffffffff1916827bffffffffffffffffffffffffffffffffffffffffffffffffffffffff1916148061070657507f5b5e139f000000000000000000000000000000000000000000000000000000007bffffffffffffffffffffffffffffffffffffffffffffffffffffffff1916827bffffffffffffffffffffffffffffffffffffffffffffffffffffffff1916145b806107165750610715826110c7565b5b9050919050565b60606000805461072c90612762565b80601f016020809104026020016040519081016040528092919081815260200182805461075890612762565b80156107a55780601f1061077a576101008083540402835291602001916107a5565b820191906000526020600020905b81548152906001019060200180831161078857829003601f168201915b5050505050905090565b60006107ba82611131565b6004600083815260200190815260200160002060009054906101000a900473ffffffffffffffffffffffffffffffffffffffff169050919050565b7f000000000000000000000000000000000000000000000000000000000000000081565b600061082482610bbb565b90508073ffffffffffffffffffffffffffffffffffffffff168373ffffffffffffffffffffffffffffffffffffffff1603610894576040517f08c379a000000000000000000000000000000000000000000000000000000000815260040161088b90612805565b60405180910390fd5b8073ffffffffffffffffffffffffffffffffffffffff166108b361117c565b73ffffffffffffffffffffffffffffffffffffffff1614806108e257506108e1816108dc61117c565b610f87565b5b610921576040517f08c379a000000000000000000000000000000000000000000000000000000000815260040161091890612897565b60405180910390fd5b61092b8383611184565b505050565b61094161093b61117c565b8261123d565b610980576040517f08c379a000000000000000000000000000000000000000000000000000000000815260040161097790612929565b60405180910390fd5b61098b8383836112d2565b505050565b600b60009054906101000a900460ff166109df576040517f08c379a00000000000000000000000000000000000000000000000000000000081526004016109d6906129bb565b60405180910390fd5b600954811115610a24576040517f08c379a0000000000000000000000000000000000000000000000000000000008152600401610a1b90612a4d565b60405180910390fd5b600a5481610a3260076115cb565b610a3c9190612a9c565b1115610a7d576040517f08c379a0000000000000000000000000000000000000000000000000000000008152600401610a7490612b42565b60405180910390fd5b3481600854610a8c9190612b62565b1115610acd576040517f08c379a0000000000000000000000000000000000000000000000000000000008152600401610ac490612bf0565b60405180910390fd5b60005b81811015610b0657600a54610ae36115d9565b1015610af357610af2336115ea565b5b8080610afe90612c10565b915050610ad0565b5050565b610b12611610565b600b60009054906101000a900460ff1615600b60006101000a81548160ff021916908315150217905550565b610b46611610565b60004790503373ffffffffffffffffffffffffffffffffffffffff166108fc829081150290604051600060405180830381858888f19350505050158015610b91573d6000803e3d6000fd5b5050565b610bb083838360405180602001604052806000815250610e8a565b505050565b60095481565b600080610bc78361168e565b9050600073ffffffffffffffffffffffffffffffffffffffff168173ffffffffffffffffffffffffffffffffffffffff1603610c38576040517f08c379a0000000000000000000000000000000000000000000000000000000008152600401610c2f90612ca4565b60405180910390fd5b80915050919050565b600c8054610c4e90612762565b80601f0160208091040260200160405190810160405280929190818152602001828054610c7a90612762565b8015610cc75780601f10610c9c57610100808354040283529160200191610cc7565b820191906000526020600020905b815481529060010190602001808311610caa57829003601f168201915b505050505081565b60008073ffffffffffffffffffffffffffffffffffffffff168273ffffffffffffffffffffffffffffffffffffffff1603610d3f576040517f08c379a0000000000000000000000000000000000000000000000000000000008152600401610d3690612d36565b60405180910390fd5b600360008373ffffffffffffffffffffffffffffffffffffffff1673ffffffffffffffffffffffffffffffffffffffff168152602001908152602001600020549050919050565b610d8e611610565b610d9860006116cb565b565b6000600660009054906101000a900473ffffffffffffffffffffffffffffffffffffffff16905090565b610dcc611610565b8060088190555050565b606060018054610de590612762565b80601f0160208091040260200160405190810160405280929190818152602001828054610e1190612762565b8015610e5e5780601f10610e3357610100808354040283529160200191610e5e565b820191906000526020600020905b815481529060010190602001808311610e4157829003601f168201915b5050505050905090565b600a5481565b60085481565b610e86610e7f61117c565b8383611791565b5050565b610e9b610e9561117c565b8361123d565b610eda576040517f08c379a0000000000000000000000000000000000000000000000000000000008152600401610ed190612929565b60405180910390fd5b610ee6848484846118fd565b50505050565b6060610ef782611131565b6000610f01611959565b90506000815111610f215760405180602001604052806000815250610f4c565b80610f2b846119ab565b604051602001610f3c929190612d92565b6040516020818303038152906040525b915050919050565b610f5c611610565b60005b81811015610f8357610f70336115ea565b8080610f7b90612c10565b915050610f5f565b5050565b6000600560008473ffffffffffffffffffffffffffffffffffffffff1673ffffffffffffffffffffffffffffffffffffffff16815260200190815260200160002060008373ffffffffffffffffffffffffffffffffffffffff1673ffffffffffffffffffffffffffffffffffffffff16815260200190815260200160002060009054906101000a900460ff16905092915050565b600b60009054906101000a900460ff1681565b611036611610565b600073ffffffffffffffffffffffffffffffffffffffff168173ffffffffffffffffffffffffffffffffffffffff16036110a5576040517f08c379a000000000000000000000000000000000000000000000000000000000815260040161109c90612e28565b60405180910390fd5b6110ae816116cb565b50565b6001816000016000828254019250508190555050565b60007f01ffc9a7000000000000000000000000000000000000000000000000000000007bffffffffffffffffffffffffffffffffffffffffffffffffffffffff1916827bffffffffffffffffffffffffffffffffffffffffffffffffffffffff1916149050919050565b61113a81611a79565b611179576040517f08c379a000000000000000000000000000000000000000000000000000000000815260040161117090612ca4565b60405180910390fd5b50565b600033905090565b816004600083815260200190815260200160002060006101000a81548173ffffffffffffffffffffffffffffffffffffffff021916908373ffffffffffffffffffffffffffffffffffffffff160217905550808273ffffffffffffffffffffffffffffffffffffffff166111f783610bbb565b73ffffffffffffffffffffffffffffffffffffffff167f8c5be1e5ebec7d5bd14f71427d1e84f3dd0314c0f7b2291e5b200ac8c7c3b92560405160405180910390a45050565b60008061124983610bbb565b90508073ffffffffffffffffffffffffffffffffffffffff168473ffffffffffffffffffffffffffffffffffffffff16148061128b575061128a8185610f87565b5b806112c957508373ffffffffffffffffffffffffffffffffffffffff166112b1846107af565b73ffffffffffffffffffffffffffffffffffffffff16145b91505092915050565b8273ffffffffffffffffffffffffffffffffffffffff166112f282610bbb565b73ffffffffffffffffffffffffffffffffffffffff1614611348576040517f08c379a000000000000000000000000000000000000000000000000000000000815260040161133f90612eba565b60405180910390fd5b600073ffffffffffffffffffffffffffffffffffffffff168273ffffffffffffffffffffffffffffffffffffffff16036113b7576040517f08c379a00000000000000000000000000000000000000000000000000000000081526004016113ae90612f4c565b60405180910390fd5b6113c48383836001611aba565b8273ffffffffffffffffffffffffffffffffffffffff166113e482610bbb565b73ffffffffffffffffffffffffffffffffffffffff161461143a576040517f08c379a000000000000000000000000000000000000000000000000000000000815260040161143190612eba565b60405180910390fd5b6004600082815260200190815260200160002060006101000a81549073ffffffffffffffffffffffffffffffffffffffff02191690556001600360008573ffffffffffffffffffffffffffffffffffffffff1673ffffffffffffffffffffffffffffffffffffffff168152602001908152602001600020600082825403925050819055506001600360008473ffffffffffffffffffffffffffffffffffffffff1673ffffffffffffffffffffffffffffffffffffffff16815260200190815260200160002060008282540192505081905550816002600083815260200190815260200160002060006101000a81548173ffffffffffffffffffffffffffffffffffffffff021916908373ffffffffffffffffffffffffffffffffffffffff160217905550808273ffffffffffffffffffffffffffffffffffffffff168473ffffffffffffffffffffffffffffffffffffffff167fddf252ad1be2c89b69c2b068fc378daa952ba7f163c4a11628f55a4df523b3ef60405160405180910390a46115c68383836001611be0565b505050565b600081600001549050919050565b60006115e560076115cb565b905090565b60006115f660076115cb565b905061160260076110b1565b61160c8282611be6565b5050565b61161861117c565b73ffffffffffffffffffffffffffffffffffffffff16611636610d9a565b73ffffffffffffffffffffffffffffffffffffffff161461168c576040517f08c379a000000000000000000000000000000000000000000000000000000000815260040161168390612fb8565b60405180910390fd5b565b60006002600083815260200190815260200160002060009054906101000a900473ffffffffffffffffffffffffffffffffffffffff169050919050565b6000600660009054906101000a900473ffffffffffffffffffffffffffffffffffffffff16905081600660006101000a81548173ffffffffffffffffffffffffffffffffffffffff021916908373ffffffffffffffffffffffffffffffffffffffff1602179055508173ffffffffffffffffffffffffffffffffffffffff168173ffffffffffffffffffffffffffffffffffffffff167f8be0079c531659141344cd1fd0a4f28419497f9722a3daafe3b4186f6b6457e060405160405180910390a35050565b8173ffffffffffffffffffffffffffffffffffffffff168373ffffffffffffffffffffffffffffffffffffffff16036117ff576040517f08c379a00000000000000000000000000000000000000000000000000000000081526004016117f690613024565b60405180910390fd5b80600560008573ffffffffffffffffffffffffffffffffffffffff1673ffffffffffffffffffffffffffffffffffffffff16815260200190815260200160002060008473ffffffffffffffffffffffffffffffffffffffff1673ffffffffffffffffffffffffffffffffffffffff16815260200190815260200160002060006101000a81548160ff0219169083151502179055508173ffffffffffffffffffffffffffffffffffffffff168373ffffffffffffffffffffffffffffffffffffffff167f17307eab39ab6107e8899845ad3d59bd9653f200f220920489ca2b5937696c31836040516118f0919061222d565b60405180910390a3505050565b6119088484846112d2565b61191484848484611c04565b611953576040517f08c379a000000000000000000000000000000000000000000000000000000000815260040161194a906130b6565b60405180910390fd5b50505050565b6060600c6119867f00000000000000000000000000000000000000000000000000000000000000006119ab565b604051602001611997929190613194565b604051602081830303815290604052905090565b6060600060016119ba84611d8b565b01905060008167ffffffffffffffff8111156119d9576119d8612545565b5b6040519080825280601f01601f191660200182016040528015611a0b5781602001600182028036833780820191505090505b509050600082602001820190505b600115611a6e578080600190039150507f3031323334353637383961626364656600000000000000000000000000000000600a86061a8153600a8581611a6257611a616131d6565b5b04945060008503611a19575b819350505050919050565b60008073ffffffffffffffffffffffffffffffffffffffff16611a9b8361168e565b73ffffffffffffffffffffffffffffffffffffffff1614159050919050565b6001811115611bda57600073ffffffffffffffffffffffffffffffffffffffff168473ffffffffffffffffffffffffffffffffffffffff1614611b4e5780600360008673ffffffffffffffffffffffffffffffffffffffff1673ffffffffffffffffffffffffffffffffffffffff1681526020019081526020016000206000828254611b469190613205565b925050819055505b600073ffffffffffffffffffffffffffffffffffffffff168373ffffffffffffffffffffffffffffffffffffffff1614611bd95780600360008573ffffffffffffffffffffffffffffffffffffffff1673ffffffffffffffffffffffffffffffffffffffff1681526020019081526020016000206000828254611bd19190612a9c565b925050819055505b5b50505050565b50505050565b611c00828260405180602001604052806000815250611ede565b5050565b6000611c258473ffffffffffffffffffffffffffffffffffffffff16611f39565b15611d7e578373ffffffffffffffffffffffffffffffffffffffff1663150b7a02611c4e61117c565b8786866040518563ffffffff1660e01b8152600401611c70949392919061328e565b6020604051808303816000875af1925050508015611cac57506040513d601f19601f82011682018060405250810190611ca991906132ef565b60015b611d2e573d8060008114611cdc576040519150601f19603f3d011682016040523d82523d6000602084013e611ce1565b606091505b506000815103611d26576040517f08c379a0000000000000000000000000000000000000000000000000000000008152600401611d1d906130b6565b60405180910390fd5b805181602001fd5b63150b7a0260e01b7bffffffffffffffffffffffffffffffffffffffffffffffffffffffff1916817bffffffffffffffffffffffffffffffffffffffffffffffffffffffff191614915050611d83565b600190505b949350505050565b600080600090507a184f03e93ff9f4daa797ed6e38ed64bf6a1f0100000000000000008310611de9577a184f03e93ff9f4daa797ed6e38ed64bf6a1f0100000000000000008381611ddf57611dde6131d6565b5b0492506040810190505b6d04ee2d6d415b85acef81000000008310611e26576d04ee2d6d415b85acef81000000008381611e1c57611e1b6131d6565b5b0492506020810190505b662386f26fc100008310611e5557662386f26fc100008381611e4b57611e4a6131d6565b5b0492506010810190505b6305f5e1008310611e7e576305f5e1008381611e7457611e736131d6565b5b0492506008810190505b6127108310611ea3576127108381611e9957611e986131d6565b5b0492506004810190505b60648310611ec65760648381611ebc57611ebb6131d6565b5b0492506002810190505b600a8310611ed5576001810190505b80915050919050565b611ee88383611f5c565b611ef56000848484611c04565b611f34576040517f08c379a0000000000000000000000000000000000000000000000000000000008152600401611f2b906130b6565b60405180910390fd5b505050565b6000808273ffffffffffffffffffffffffffffffffffffffff163b119050919050565b600073ffffffffffffffffffffffffffffffffffffffff168273ffffffffffffffffffffffffffffffffffffffff1603611fcb576040517f08c379a0000000000000000000000000000000000000000000000000000000008152600401611fc290613368565b60405180910390fd5b611fd481611a79565b15612014576040517f08c379a000000000000000000000000000000000000000000000000000000000815260040161200b906133d4565b60405180910390fd5b612022600083836001611aba565b61202b81611a79565b1561206b576040517f08c379a0000000000000000000000000000000000000000000000000000000008152600401612062906133d4565b60405180910390fd5b6001600360008473ffffffffffffffffffffffffffffffffffffffff1673ffffffffffffffffffffffffffffffffffffffff16815260200190815260200160002060008282540192505081905550816002600083815260200190815260200160002060006101000a81548173ffffffffffffffffffffffffffffffffffffffff021916908373ffffffffffffffffffffffffffffffffffffffff160217905550808273ffffffffffffffffffffffffffffffffffffffff16600073ffffffffffffffffffffffffffffffffffffffff167fddf252ad1be2c89b69c2b068fc378daa952ba7f163c4a11628f55a4df523b3ef60405160405180910390a4612175600083836001611be0565b5050565b6000604051905090565b600080fd5b600080fd5b60007fffffffff0000000000000000000000000000000000000000000000000000000082169050919050565b6121c28161218d565b81146121cd57600080fd5b50565b6000813590506121df816121b9565b92915050565b6000602082840312156121fb576121fa612183565b5b6000612209848285016121d0565b91505092915050565b60008115159050919050565b61222781612212565b82525050565b6000602082019050612242600083018461221e565b92915050565b600081519050919050565b600082825260208201905092915050565b60005b83811015612282578082015181840152602081019050612267565b60008484015250505050565b6000601f19601f8301169050919050565b60006122aa82612248565b6122b48185612253565b93506122c4818560208601612264565b6122cd8161228e565b840191505092915050565b600060208201905081810360008301526122f2818461229f565b905092915050565b6000819050919050565b61230d816122fa565b811461231857600080fd5b50565b60008135905061232a81612304565b92915050565b60006020828403121561234657612345612183565b5b60006123548482850161231b565b91505092915050565b600073ffffffffffffffffffffffffffffffffffffffff82169050919050565b60006123888261235d565b9050919050565b6123988161237d565b82525050565b60006020820190506123b3600083018461238f565b92915050565b6123c2816122fa565b82525050565b60006020820190506123dd60008301846123b9565b92915050565b6123ec8161237d565b81146123f757600080fd5b50565b600081359050612409816123e3565b92915050565b6000806040838503121561242657612425612183565b5b6000612434858286016123fa565b92505060206124458582860161231b565b9150509250929050565b60008060006060848603121561246857612467612183565b5b6000612476868287016123fa565b9350506020612487868287016123fa565b92505060406124988682870161231b565b9150509250925092565b6000602082840312156124b8576124b7612183565b5b60006124c6848285016123fa565b91505092915050565b6124d881612212565b81146124e357600080fd5b50565b6000813590506124f5816124cf565b92915050565b6000806040838503121561251257612511612183565b5b6000612520858286016123fa565b9250506020612531858286016124e6565b9150509250929050565b600080fd5b600080fd5b7f4e487b7100000000000000000000000000000000000000000000000000000000600052604160045260246000fd5b61257d8261228e565b810181811067ffffffffffffffff8211171561259c5761259b612545565b5b80604052505050565b60006125af612179565b90506125bb8282612574565b919050565b600067ffffffffffffffff8211156125db576125da612545565b5b6125e48261228e565b9050602081019050919050565b82818337600083830152505050565b600061261361260e846125c0565b6125a5565b90508281526020810184848401111561262f5761262e612540565b5b61263a8482856125f1565b509392505050565b600082601f8301126126575761265661253b565b5b8135612667848260208601612600565b91505092915050565b6000806000806080858703121561268a57612689612183565b5b6000612698878288016123fa565b94505060206126a9878288016123fa565b93505060406126ba8782880161231b565b925050606085013567ffffffffffffffff8111156126db576126da612188565b5b6126e787828801612642565b91505092959194509250565b6000806040838503121561270a57612709612183565b5b6000612718858286016123fa565b9250506020612729858286016123fa565b9150509250929050565b7f4e487b7100000000000000000000000000000000000000000000000000000000600052602260045260246000fd5b6000600282049050600182168061277a57607f821691505b60208210810361278d5761278c612733565b5b50919050565b7f4552433732313a20617070726f76616c20746f2063757272656e74206f776e6560008201527f7200000000000000000000000000000000000000000000000000000000000000602082015250565b60006127ef602183612253565b91506127fa82612793565b604082019050919050565b6000602082019050818103600083015261281e816127e2565b9050919050565b7f4552433732313a20617070726f76652063616c6c6572206973206e6f7420746f60008201527f6b656e206f776e6572206f7220617070726f76656420666f7220616c6c000000602082015250565b6000612881603d83612253565b915061288c82612825565b604082019050919050565b600060208201905081810360008301526128b081612874565b9050919050565b7f4552433732313a2063616c6c6572206973206e6f7420746f6b656e206f776e6560008201527f72206f7220617070726f76656400000000000000000000000000000000000000602082015250565b6000612913602d83612253565b915061291e826128b7565b604082019050919050565b6000602082019050818103600083015261294281612906565b9050919050565b7f53616c65206d7573742062652061637469766520746f206d696e74205469636b60008201527f6574000000000000000000000000000000000000000000000000000000000000602082015250565b60006129a5602283612253565b91506129b082612949565b604082019050919050565b600060208201905081810360008301526129d481612998565b9050919050565b7f43616e6e6f74206d696e742074686174206d616e7920746f6b656e7320666f7260008201527f2031207075726368617365000000000000000000000000000000000000000000602082015250565b6000612a37602b83612253565b9150612a42826129db565b604082019050919050565b60006020820190508181036000830152612a6681612a2a565b9050919050565b7f4e487b7100000000000000000000000000000000000000000000000000000000600052601160045260246000fd5b6000612aa7826122fa565b9150612ab2836122fa565b9250828201905080821115612aca57612ac9612a6d565b5b92915050565b7f507572636861736520776f756c6420657863656564206d617820737570706c7960008201527f206f66205469636b657473000000000000000000000000000000000000000000602082015250565b6000612b2c602b83612253565b9150612b3782612ad0565b604082019050919050565b60006020820190508181036000830152612b5b81612b1f565b9050919050565b6000612b6d826122fa565b9150612b78836122fa565b9250828202612b86816122fa565b91508282048414831517612b9d57612b9c612a6d565b5b5092915050565b7f45746865722076616c75652073656e74206973206e6f7420636f727265637400600082015250565b6000612bda601f83612253565b9150612be582612ba4565b602082019050919050565b60006020820190508181036000830152612c0981612bcd565b9050919050565b6000612c1b826122fa565b91507fffffffffffffffffffffffffffffffffffffffffffffffffffffffffffffffff8203612c4d57612c4c612a6d565b5b600182019050919050565b7f4552433732313a20696e76616c696420746f6b656e2049440000000000000000600082015250565b6000612c8e601883612253565b9150612c9982612c58565b602082019050919050565b60006020820190508181036000830152612cbd81612c81565b9050919050565b7f4552433732313a2061646472657373207a65726f206973206e6f74206120766160008201527f6c6964206f776e65720000000000000000000000000000000000000000000000602082015250565b6000612d20602983612253565b9150612d2b82612cc4565b604082019050919050565b60006020820190508181036000830152612d4f81612d13565b9050919050565b600081905092915050565b6000612d6c82612248565b612d768185612d56565b9350612d86818560208601612264565b80840191505092915050565b6000612d9e8285612d61565b9150612daa8284612d61565b91508190509392505050565b7f4f776e61626c653a206e6577206f776e657220697320746865207a65726f206160008201527f6464726573730000000000000000000000000000000000000000000000000000602082015250565b6000612e12602683612253565b9150612e1d82612db6565b604082019050919050565b60006020820190508181036000830152612e4181612e05565b9050919050565b7f4552433732313a207472616e736665722066726f6d20696e636f72726563742060008201527f6f776e6572000000000000000000000000000000000000000000000000000000602082015250565b6000612ea4602583612253565b9150612eaf82612e48565b604082019050919050565b60006020820190508181036000830152612ed381612e97565b9050919050565b7f4552433732313a207472616e7366657220746f20746865207a65726f2061646460008201527f7265737300000000000000000000000000000000000000000000000000000000602082015250565b6000612f36602483612253565b9150612f4182612eda565b604082019050919050565b60006020820190508181036000830152612f6581612f29565b9050919050565b7f4f776e61626c653a2063616c6c6572206973206e6f7420746865206f776e6572600082015250565b6000612fa2602083612253565b9150612fad82612f6c565b602082019050919050565b60006020820190508181036000830152612fd181612f95565b9050919050565b7f4552433732313a20617070726f766520746f2063616c6c657200000000000000600082015250565b600061300e601983612253565b915061301982612fd8565b602082019050919050565b6000602082019050818103600083015261303d81613001565b9050919050565b7f4552433732313a207472616e7366657220746f206e6f6e20455243373231526560008201527f63656976657220696d706c656d656e7465720000000000000000000000000000602082015250565b60006130a0603283612253565b91506130ab82613044565b604082019050919050565b600060208201905081810360008301526130cf81613093565b9050919050565b60008190508160005260206000209050919050565b600081546130f881612762565b6131028186612d56565b9450600182166000811461311d576001811461313257613165565b60ff1983168652811515820286019350613165565b61313b856130d6565b60005b8381101561315d5781548189015260018201915060208101905061313e565b838801955050505b50505092915050565b7f2f00000000000000000000000000000000000000000000000000000000000000815250565b60006131a082856130eb565b91506131ab8261316e565b6001820191506131bb8284612d61565b91506131c68261316e565b6001820191508190509392505050565b7f4e487b7100000000000000000000000000000000000000000000000000000000600052601260045260246000fd5b6000613210826122fa565b915061321b836122fa565b925082820390508181111561323357613232612a6d565b5b92915050565b600081519050919050565b600082825260208201905092915050565b600061326082613239565b61326a8185613244565b935061327a818560208601612264565b6132838161228e565b840191505092915050565b60006080820190506132a3600083018761238f565b6132b0602083018661238f565b6132bd60408301856123b9565b81810360608301526132cf8184613255565b905095945050505050565b6000815190506132e9816121b9565b92915050565b60006020828403121561330557613304612183565b5b6000613313848285016132da565b91505092915050565b7f4552433732313a206d696e7420746f20746865207a65726f2061646472657373600082015250565b6000613352602083612253565b915061335d8261331c565b602082019050919050565b6000602082019050818103600083015261338181613345565b9050919050565b7f4552433732313a20746f6b656e20616c7265616479206d696e74656400000000600082015250565b60006133be601c83612253565b91506133c982613388565b602082019050919050565b600060208201905081810360008301526133ed816133b1565b905091905056fea2646970667358221220025ac07355b49c70e505a229f0e5aaf7aa28a94b5d52e60caf16970b8b09b79a64736f6c63430008110033",
  "linkReferences": {},
  "deployedLinkReferences": {}
}