{
  "_format": "hh-sol-artifact-1",
  "contractName": "WhitelistNFT",
  "sourceName": "contracts/VKEvent.sol",
  "abi": [
    {
      "inputs": [
        {
          "internalType": "string",
          "name": "name",
          "type": "string"
        },
        {
          "internalType": "string",
          "name": "symbol",
          "type": "string"
        },
        {
          "internalType": "uint256",
          "name": "_eventId",
          "type": "uint256"
        },
        {
          "internalType": "string",
          "name": "_baseUri",
          "type": "string"
        },
        {
          "internalType": "address[]",
          "name": "_addresses",
          "type": "address[]"
        },
        {
          "internalType": "bool",
          "name": "_published",
          "type": "bool"
        }
      ],
      "stateMutability": "nonpayable",
      "type": "constructor"
    },
    {
      "anonymous": false,
      "inputs": [
        {
          "indexed": true,
          "internalType": "address",
          "name": "owner",
          "type": "address"
        },
        {
          "indexed": true,
          "internalType": "address",
          "name": "approved",
          "type": "address"
        },
        {
          "indexed": true,
          "internalType": "uint256",
          "name": "tokenId",
          "type": "uint256"
        }
      ],
      "name": "Approval",
      "type": "event"
    },
    {
      "anonymous": false,
      "inputs": [
        {
          "indexed": true,
          "internalType": "address",
          "name": "owner",
          "type": "address"
        },
        {
          "indexed": true,
          "internalType": "address",
          "name": "operator",
          "type": "address"
        },
        {
          "indexed": false,
          "internalType": "bool",
          "name": "approved",
          "type": "bool"
        }
      ],
      "name": "ApprovalForAll",
      "type": "event"
    },
    {
      "anonymous": false,
      "inputs": [
        {
          "indexed": true,
          "internalType": "address",
          "name": "previousOwner",
          "type": "address"
        },
        {
          "indexed": true,
          "internalType": "address",
          "name": "newOwner",
          "type": "address"
        }
      ],
      "name": "OwnershipTransferred",
      "type": "event"
    },
    {
      "anonymous": false,
      "inputs": [
        {
          "indexed": true,
          "internalType": "address",
          "name": "from",
          "type": "address"
        },
        {
          "indexed": true,
          "internalType": "address",
          "name": "to",
          "type": "address"
        },
        {
          "indexed": true,
          "internalType": "uint256",
          "name": "tokenId",
          "type": "uint256"
        }
      ],
      "name": "Transfer",
      "type": "event"
    },
    {
      "inputs": [
        {
          "internalType": "address",
          "name": "to",
          "type": "address"
        },
        {
          "internalType": "uint256",
          "name": "tokenId",
          "type": "uint256"
        }
      ],
      "name": "approve",
      "outputs": [],
      "stateMutability": "nonpayable",
      "type": "function"
    },
    {
      "inputs": [
        {
          "internalType": "address",
          "name": "owner",
          "type": "address"
        }
      ],
      "name": "balanceOf",
      "outputs": [
        {
          "internalType": "uint256",
          "name": "",
          "type": "uint256"
        }
      ],
      "stateMutability": "view",
      "type": "function"
    },
    {
      "inputs": [],
      "name": "baseURI",
      "outputs": [
        {
          "internalType": "string",
          "name": "",
          "type": "string"
        }
      ],
      "stateMutability": "view",
      "type": "function"
    },
    {
      "inputs": [],
      "name": "claimNFT",
      "outputs": [
        {
          "internalType": "uint256",
          "name": "tokenId",
          "type": "uint256"
        }
      ],
      "stateMutability": "nonpayable",
      "type": "function"
    },
    {
      "inputs": [],
      "name": "currentSupply",
      "outputs": [
        {
          "internalType": "uint256",
          "name": "",
          "type": "uint256"
        }
      ],
      "stateMutability": "view",
      "type": "function"
    },
    {
      "inputs": [],
      "name": "eventId",
      "outputs": [
        {
          "internalType": "uint256",
          "name": "",
          "type": "uint256"
        }
      ],
      "stateMutability": "view",
      "type": "function"
    },
    {
      "inputs": [
        {
          "internalType": "uint256",
          "name": "tokenId",
          "type": "uint256"
        }
      ],
      "name": "getApproved",
      "outputs": [
        {
          "internalType": "address",
          "name": "",
          "type": "address"
        }
      ],
      "stateMutability": "view",
      "type": "function"
    },
    {
      "inputs": [
        {
          "internalType": "uint256",
          "name": "tokenId",
          "type": "uint256"
        }
      ],
      "name": "getTokenURI",
      "outputs": [
        {
          "internalType": "string",
          "name": "",
          "type": "string"
        }
      ],
      "stateMutability": "view",
      "type": "function"
    },
    {
      "inputs": [
        {
          "internalType": "address",
          "name": "owner",
          "type": "address"
        },
        {
          "internalType": "address",
          "name": "operator",
          "type": "address"
        }
      ],
      "name": "isApprovedForAll",
      "outputs": [
        {
          "internalType": "bool",
          "name": "",
          "type": "bool"
        }
      ],
      "stateMutability": "view",
      "type": "function"
    },
    {
      "inputs": [],
      "name": "name",
      "outputs": [
        {
          "internalType": "string",
          "name": "",
          "type": "string"
        }
      ],
      "stateMutability": "view",
      "type": "function"
    },
    {
      "inputs": [],
      "name": "owner",
      "outputs": [
        {
          "internalType": "address",
          "name": "",
          "type": "address"
        }
      ],
      "stateMutability": "view",
      "type": "function"
    },
    {
      "inputs": [
        {
          "internalType": "uint256",
          "name": "tokenId",
          "type": "uint256"
        }
      ],
      "name": "ownerOf",
      "outputs": [
        {
          "internalType": "address",
          "name": "",
          "type": "address"
        }
      ],
      "stateMutability": "view",
      "type": "function"
    },
    {
      "inputs": [],
      "name": "publish",
      "outputs": [],
      "stateMutability": "nonpayable",
      "type": "function"
    },
    {
      "inputs": [],
      "name": "published",
      "outputs": [
        {
          "internalType": "bool",
          "name": "",
          "type": "bool"
        }
      ],
      "stateMutability": "view",
      "type": "function"
    },
    {
      "inputs": [],
      "name": "renounceOwnership",
      "outputs": [],
      "stateMutability": "nonpayable",
      "type": "function"
    },
    {
      "inputs": [
        {
          "internalType": "address",
          "name": "from",
          "type": "address"
        },
        {
          "internalType": "address",
          "name": "to",
          "type": "address"
        },
        {
          "internalType": "uint256",
          "name": "tokenId",
          "type": "uint256"
        }
      ],
      "name": "safeTransferFrom",
      "outputs": [],
      "stateMutability": "nonpayable",
      "type": "function"
    },
    {
      "inputs": [
        {
          "internalType": "address",
          "name": "from",
          "type": "address"
        },
        {
          "internalType": "address",
          "name": "to",
          "type": "address"
        },
        {
          "internalType": "uint256",
          "name": "tokenId",
          "type": "uint256"
        },
        {
          "internalType": "bytes",
          "name": "data",
          "type": "bytes"
        }
      ],
      "name": "safeTransferFrom",
      "outputs": [],
      "stateMutability": "nonpayable",
      "type": "function"
    },
    {
      "inputs": [
        {
          "internalType": "address",
          "name": "operator",
          "type": "address"
        },
        {
          "internalType": "bool",
          "name": "approved",
          "type": "bool"
        }
      ],
      "name": "setApprovalForAll",
      "outputs": [],
      "stateMutability": "nonpayable",
      "type": "function"
    },
    {
      "inputs": [
        {
          "internalType": "bytes4",
          "name": "interfaceId",
          "type": "bytes4"
        }
      ],
      "name": "supportsInterface",
      "outputs": [
        {
          "internalType": "bool",
          "name": "",
          "type": "bool"
        }
      ],
      "stateMutability": "view",
      "type": "function"
    },
    {
      "inputs": [],
      "name": "symbol",
      "outputs": [
        {
          "internalType": "string",
          "name": "",
          "type": "string"
        }
      ],
      "stateMutability": "view",
      "type": "function"
    },
    {
      "inputs": [
        {
          "internalType": "uint256",
          "name": "tokenId",
          "type": "uint256"
        }
      ],
      "name": "tokenURI",
      "outputs": [
        {
          "internalType": "string",
          "name": "",
          "type": "string"
        }
      ],
      "stateMutability": "view",
      "type": "function"
    },
    {
      "inputs": [
        {
          "internalType": "address",
          "name": "from",
          "type": "address"
        },
        {
          "internalType": "address",
          "name": "to",
          "type": "address"
        },
        {
          "internalType": "uint256",
          "name": "tokenId",
          "type": "uint256"
        }
      ],
      "name": "transferFrom",
      "outputs": [],
      "stateMutability": "nonpayable",
      "type": "function"
    },
    {
      "inputs": [
        {
          "internalType": "address",
          "name": "newOwner",
          "type": "address"
        }
      ],
      "name": "transferOwnership",
      "outputs": [],
      "stateMutability": "nonpayable",
      "type": "function"
    },
    {
      "inputs": [
        {
          "internalType": "address",
          "name": "",
          "type": "address"
        }
      ],
      "name": "whitelist",
      "outputs": [
        {
          "internalType": "bool",
          "name": "",
          "type": "bool"
        }
      ],
      "stateMutability": "view",
      "type": "function"
    }
  ],
  "bytecode": "0x60a060405260006007553480156200001657600080fd5b5060405162003cfa38038062003cfa83398181016040528101906200003c9190620006a3565b858581600090816200004f9190620009fc565b508060019081620000619190620009fc565b5050506200008462000078620001a260201b60201c565b620001aa60201b60201c565b6000825111620000cb576040517f08c379a0000000000000000000000000000000000000000000000000000000008152600401620000c29062000b44565b60405180910390fd5b83608081815250508260099081620000e49190620009fc565b5060005b82518110156200017d576001600860008584815181106200010e576200010d62000b66565b5b602002602001015173ffffffffffffffffffffffffffffffffffffffff1673ffffffffffffffffffffffffffffffffffffffff16815260200190815260200160002060006101000a81548160ff0219169083151502179055508080620001749062000bc4565b915050620000e8565b5080156200019657620001956200027060201b60201c565b5b50505050505062000c83565b600033905090565b6000600660009054906101000a900473ffffffffffffffffffffffffffffffffffffffff16905081600660006101000a81548173ffffffffffffffffffffffffffffffffffffffff021916908373ffffffffffffffffffffffffffffffffffffffff1602179055508173ffffffffffffffffffffffffffffffffffffffff168173ffffffffffffffffffffffffffffffffffffffff167f8be0079c531659141344cd1fd0a4f28419497f9722a3daafe3b4186f6b6457e060405160405180910390a35050565b620002806200029d60201b60201c565b6001600a60006101000a81548160ff021916908315150217905550565b620002ad620001a260201b60201c565b73ffffffffffffffffffffffffffffffffffffffff16620002d36200032e60201b60201c565b73ffffffffffffffffffffffffffffffffffffffff16146200032c576040517f08c379a0000000000000000000000000000000000000000000000000000000008152600401620003239062000c61565b60405180910390fd5b565b6000600660009054906101000a900473ffffffffffffffffffffffffffffffffffffffff16905090565b6000604051905090565b600080fd5b600080fd5b600080fd5b600080fd5b6000601f19601f8301169050919050565b7f4e487b7100000000000000000000000000000000000000000000000000000000600052604160045260246000fd5b620003c18262000376565b810181811067ffffffffffffffff82111715620003e357620003e262000387565b5b80604052505050565b6000620003f862000358565b9050620004068282620003b6565b919050565b600067ffffffffffffffff82111562000429576200042862000387565b5b620004348262000376565b9050602081019050919050565b60005b838110156200046157808201518184015260208101905062000444565b60008484015250505050565b6000620004846200047e846200040b565b620003ec565b905082815260208101848484011115620004a357620004a262000371565b5b620004b084828562000441565b509392505050565b600082601f830112620004d057620004cf6200036c565b5b8151620004e28482602086016200046d565b91505092915050565b6000819050919050565b6200050081620004eb565b81146200050c57600080fd5b50565b6000815190506200052081620004f5565b92915050565b600067ffffffffffffffff82111562000544576200054362000387565b5b602082029050602081019050919050565b600080fd5b600073ffffffffffffffffffffffffffffffffffffffff82169050919050565b600062000587826200055a565b9050919050565b62000599816200057a565b8114620005a557600080fd5b50565b600081519050620005b9816200058e565b92915050565b6000620005d6620005d08462000526565b620003ec565b90508083825260208201905060208402830185811115620005fc57620005fb62000555565b5b835b81811015620006295780620006148882620005a8565b845260208401935050602081019050620005fe565b5050509392505050565b600082601f8301126200064b576200064a6200036c565b5b81516200065d848260208601620005bf565b91505092915050565b60008115159050919050565b6200067d8162000666565b81146200068957600080fd5b50565b6000815190506200069d8162000672565b92915050565b60008060008060008060c08789031215620006c357620006c262000362565b5b600087015167ffffffffffffffff811115620006e457620006e362000367565b5b620006f289828a01620004b8565b965050602087015167ffffffffffffffff81111562000716576200071562000367565b5b6200072489828a01620004b8565b95505060406200073789828a016200050f565b945050606087015167ffffffffffffffff8111156200075b576200075a62000367565b5b6200076989828a01620004b8565b935050608087015167ffffffffffffffff8111156200078d576200078c62000367565b5b6200079b89828a0162000633565b92505060a0620007ae89828a016200068c565b9150509295509295509295565b600081519050919050565b7f4e487b7100000000000000000000000000000000000000000000000000000000600052602260045260246000fd5b600060028204905060018216806200080e57607f821691505b602082108103620008245762000823620007c6565b5b50919050565b60008190508160005260206000209050919050565b60006020601f8301049050919050565b600082821b905092915050565b6000600883026200088e7fffffffffffffffffffffffffffffffffffffffffffffffffffffffffffffffff826200084f565b6200089a86836200084f565b95508019841693508086168417925050509392505050565b6000819050919050565b6000620008dd620008d7620008d184620004eb565b620008b2565b620004eb565b9050919050565b6000819050919050565b620008f983620008bc565b620009116200090882620008e4565b8484546200085c565b825550505050565b600090565b6200092862000919565b62000935818484620008ee565b505050565b5b818110156200095d57620009516000826200091e565b6001810190506200093b565b5050565b601f821115620009ac5762000976816200082a565b62000981846200083f565b8101602085101562000991578190505b620009a9620009a0856200083f565b8301826200093a565b50505b505050565b600082821c905092915050565b6000620009d160001984600802620009b1565b1980831691505092915050565b6000620009ec8383620009be565b9150826002028217905092915050565b62000a0782620007bb565b67ffffffffffffffff81111562000a235762000a2262000387565b5b62000a2f8254620007f5565b62000a3c82828562000961565b600060209050601f83116001811462000a74576000841562000a5f578287015190505b62000a6b8582620009de565b86555062000adb565b601f19841662000a84866200082a565b60005b8281101562000aae5784890151825560018201915060208501945060208101905062000a87565b8683101562000ace578489015162000aca601f891682620009be565b8355505b6001600288020188555050505b505050505050565b600082825260208201905092915050565b7f5f6164647265737365732073686f756c64206e6f7420626520656d7074790000600082015250565b600062000b2c601e8362000ae3565b915062000b398262000af4565b602082019050919050565b6000602082019050818103600083015262000b5f8162000b1d565b9050919050565b7f4e487b7100000000000000000000000000000000000000000000000000000000600052603260045260246000fd5b7f4e487b7100000000000000000000000000000000000000000000000000000000600052601160045260246000fd5b600062000bd182620004eb565b91507fffffffffffffffffffffffffffffffffffffffffffffffffffffffffffffffff820362000c065762000c0562000b95565b5b600182019050919050565b7f4f776e61626c653a2063616c6c6572206973206e6f7420746865206f776e6572600082015250565b600062000c4960208362000ae3565b915062000c568262000c11565b602082019050919050565b6000602082019050818103600083015262000c7c8162000c3a565b9050919050565b60805161305462000ca66000396000818161066a01526113f401526130546000f3fe608060405234801561001057600080fd5b50600436106101585760003560e01c806370a08231116100c35780639b19251a1161007c5780639b19251a146103a5578063a22cb465146103d5578063b88d4fde146103f1578063c87b56dd1461040d578063e985e9c51461043d578063f2fde38b1461046d57610158565b806370a08231146102f3578063715018a614610323578063771282f61461032d5780638d4d2b0c1461034b5780638da5cb5b1461036957806395d89b411461038757610158565b806323b872dd1161011557806323b872dd1461021f5780633bb3a24d1461023b57806342842e0e1461026b5780636352211e14610287578063672756ad146102b75780636c0360eb146102d557610158565b806301ffc9a71461015d57806306fdde031461018d578063075d4782146101ab578063081812fc146101b5578063089cdd0c146101e5578063095ea7b314610203575b600080fd5b61017760048036038101906101729190611f42565b610489565b6040516101849190611f8a565b60405180910390f35b61019561056b565b6040516101a29190612035565b60405180910390f35b6101b36105fd565b005b6101cf60048036038101906101ca919061208d565b610622565b6040516101dc91906120fb565b60405180910390f35b6101ed610668565b6040516101fa9190612125565b60405180910390f35b61021d6004803603810190610218919061216c565b61068c565b005b610239600480360381019061023491906121ac565b6107a3565b005b6102556004803603810190610250919061208d565b610803565b6040516102629190612035565b60405180910390f35b610285600480360381019061028091906121ac565b61086b565b005b6102a1600480360381019061029c919061208d565b61088b565b6040516102ae91906120fb565b60405180910390f35b6102bf610911565b6040516102cc9190612125565b60405180910390f35b6102dd610a24565b6040516102ea9190612035565b60405180910390f35b61030d600480360381019061030891906121ff565b610ab2565b60405161031a9190612125565b60405180910390f35b61032b610b69565b005b610335610b7d565b6040516103429190612125565b60405180910390f35b610353610b83565b6040516103609190611f8a565b60405180910390f35b610371610b96565b60405161037e91906120fb565b60405180910390f35b61038f610bc0565b60405161039c9190612035565b60405180910390f35b6103bf60048036038101906103ba91906121ff565b610c52565b6040516103cc9190611f8a565b60405180910390f35b6103ef60048036038101906103ea9190612258565b610c72565b005b61040b600480360381019061040691906123cd565b610c88565b005b6104276004803603810190610422919061208d565b610cea565b6040516104349190612035565b60405180910390f35b61045760048036038101906104529190612450565b610d52565b6040516104649190611f8a565b60405180910390f35b610487600480360381019061048291906121ff565b610de6565b005b60007f80ac58cd000000000000000000000000000000000000000000000000000000007bffffffffffffffffffffffffffffffffffffffffffffffffffffffff1916827bffffffffffffffffffffffffffffffffffffffffffffffffffffffff1916148061055457507f5b5e139f000000000000000000000000000000000000000000000000000000007bffffffffffffffffffffffffffffffffffffffffffffffffffffffff1916827bffffffffffffffffffffffffffffffffffffffffffffffffffffffff1916145b80610564575061056382610e69565b5b9050919050565b60606000805461057a906124bf565b80601f01602080910402602001604051908101604052809291908181526020018280546105a6906124bf565b80156105f35780601f106105c8576101008083540402835291602001916105f3565b820191906000526020600020905b8154815290600101906020018083116105d657829003601f168201915b5050505050905090565b610605610ed3565b6001600a60006101000a81548160ff021916908315150217905550565b600061062d82610f51565b6004600083815260200190815260200160002060009054906101000a900473ffffffffffffffffffffffffffffffffffffffff169050919050565b7f000000000000000000000000000000000000000000000000000000000000000081565b60006106978261088b565b90508073ffffffffffffffffffffffffffffffffffffffff168373ffffffffffffffffffffffffffffffffffffffff1603610707576040517f08c379a00000000000000000000000000000000000000000000000000000000081526004016106fe90612562565b60405180910390fd5b8073ffffffffffffffffffffffffffffffffffffffff16610726610f9c565b73ffffffffffffffffffffffffffffffffffffffff16148061075557506107548161074f610f9c565b610d52565b5b610794576040517f08c379a000000000000000000000000000000000000000000000000000000000815260040161078b906125f4565b60405180910390fd5b61079e8383610fa4565b505050565b6107b46107ae610f9c565b8261105d565b6107f3576040517f08c379a00000000000000000000000000000000000000000000000000000000081526004016107ea90612686565b60405180910390fd5b6107fe8383836110f2565b505050565b606061080e82610f51565b60006108186113eb565b905060008151116108385760405180602001604052806000815250610863565b806108428461143d565b604051602001610853929190612708565b6040516020818303038152906040525b915050919050565b61088683838360405180602001604052806000815250610c88565b505050565b6000806108978361150b565b9050600073ffffffffffffffffffffffffffffffffffffffff168173ffffffffffffffffffffffffffffffffffffffff1603610908576040517f08c379a00000000000000000000000000000000000000000000000000000000081526004016108ff90612787565b60405180910390fd5b80915050919050565b6000600a60009054906101000a900460ff16610962576040517f08c379a0000000000000000000000000000000000000000000000000000000008152600401610959906127f3565b60405180910390fd5b600860003373ffffffffffffffffffffffffffffffffffffffff1673ffffffffffffffffffffffffffffffffffffffff16815260200190815260200160002060009054906101000a900460ff166109ee576040517f08c379a00000000000000000000000000000000000000000000000000000000081526004016109e59061285f565b60405180910390fd5b60016007546109fd91906128ae565b9050610a093382611548565b60076000815480929190610a1c906128e2565b919050555090565b60098054610a31906124bf565b80601f0160208091040260200160405190810160405280929190818152602001828054610a5d906124bf565b8015610aaa5780601f10610a7f57610100808354040283529160200191610aaa565b820191906000526020600020905b815481529060010190602001808311610a8d57829003601f168201915b505050505081565b60008073ffffffffffffffffffffffffffffffffffffffff168273ffffffffffffffffffffffffffffffffffffffff1603610b22576040517f08c379a0000000000000000000000000000000000000000000000000000000008152600401610b199061299c565b60405180910390fd5b600360008373ffffffffffffffffffffffffffffffffffffffff1673ffffffffffffffffffffffffffffffffffffffff168152602001908152602001600020549050919050565b610b71610ed3565b610b7b6000611566565b565b60075481565b600a60009054906101000a900460ff1681565b6000600660009054906101000a900473ffffffffffffffffffffffffffffffffffffffff16905090565b606060018054610bcf906124bf565b80601f0160208091040260200160405190810160405280929190818152602001828054610bfb906124bf565b8015610c485780601f10610c1d57610100808354040283529160200191610c48565b820191906000526020600020905b815481529060010190602001808311610c2b57829003601f168201915b5050505050905090565b60086020528060005260406000206000915054906101000a900460ff1681565b610c84610c7d610f9c565b838361162c565b5050565b610c99610c93610f9c565b8361105d565b610cd8576040517f08c379a0000000000000000000000000000000000000000000000000000000008152600401610ccf90612686565b60405180910390fd5b610ce484848484611798565b50505050565b6060610cf582610f51565b6000610cff6113eb565b90506000815111610d1f5760405180602001604052806000815250610d4a565b80610d298461143d565b604051602001610d3a9291906129bc565b6040516020818303038152906040525b915050919050565b6000600560008473ffffffffffffffffffffffffffffffffffffffff1673ffffffffffffffffffffffffffffffffffffffff16815260200190815260200160002060008373ffffffffffffffffffffffffffffffffffffffff1673ffffffffffffffffffffffffffffffffffffffff16815260200190815260200160002060009054906101000a900460ff16905092915050565b610dee610ed3565b600073ffffffffffffffffffffffffffffffffffffffff168173ffffffffffffffffffffffffffffffffffffffff1603610e5d576040517f08c379a0000000000000000000000000000000000000000000000000000000008152600401610e5490612a52565b60405180910390fd5b610e6681611566565b50565b60007f01ffc9a7000000000000000000000000000000000000000000000000000000007bffffffffffffffffffffffffffffffffffffffffffffffffffffffff1916827bffffffffffffffffffffffffffffffffffffffffffffffffffffffff1916149050919050565b610edb610f9c565b73ffffffffffffffffffffffffffffffffffffffff16610ef9610b96565b73ffffffffffffffffffffffffffffffffffffffff1614610f4f576040517f08c379a0000000000000000000000000000000000000000000000000000000008152600401610f4690612abe565b60405180910390fd5b565b610f5a816117f4565b610f99576040517f08c379a0000000000000000000000000000000000000000000000000000000008152600401610f9090612787565b60405180910390fd5b50565b600033905090565b816004600083815260200190815260200160002060006101000a81548173ffffffffffffffffffffffffffffffffffffffff021916908373ffffffffffffffffffffffffffffffffffffffff160217905550808273ffffffffffffffffffffffffffffffffffffffff166110178361088b565b73ffffffffffffffffffffffffffffffffffffffff167f8c5be1e5ebec7d5bd14f71427d1e84f3dd0314c0f7b2291e5b200ac8c7c3b92560405160405180910390a45050565b6000806110698361088b565b90508073ffffffffffffffffffffffffffffffffffffffff168473ffffffffffffffffffffffffffffffffffffffff1614806110ab57506110aa8185610d52565b5b806110e957508373ffffffffffffffffffffffffffffffffffffffff166110d184610622565b73ffffffffffffffffffffffffffffffffffffffff16145b91505092915050565b8273ffffffffffffffffffffffffffffffffffffffff166111128261088b565b73ffffffffffffffffffffffffffffffffffffffff1614611168576040517f08c379a000000000000000000000000000000000000000000000000000000000815260040161115f90612b50565b60405180910390fd5b600073ffffffffffffffffffffffffffffffffffffffff168273ffffffffffffffffffffffffffffffffffffffff16036111d7576040517f08c379a00000000000000000000000000000000000000000000000000000000081526004016111ce90612be2565b60405180910390fd5b6111e48383836001611835565b8273ffffffffffffffffffffffffffffffffffffffff166112048261088b565b73ffffffffffffffffffffffffffffffffffffffff161461125a576040517f08c379a000000000000000000000000000000000000000000000000000000000815260040161125190612b50565b60405180910390fd5b6004600082815260200190815260200160002060006101000a81549073ffffffffffffffffffffffffffffffffffffffff02191690556001600360008573ffffffffffffffffffffffffffffffffffffffff1673ffffffffffffffffffffffffffffffffffffffff168152602001908152602001600020600082825403925050819055506001600360008473ffffffffffffffffffffffffffffffffffffffff1673ffffffffffffffffffffffffffffffffffffffff16815260200190815260200160002060008282540192505081905550816002600083815260200190815260200160002060006101000a81548173ffffffffffffffffffffffffffffffffffffffff021916908373ffffffffffffffffffffffffffffffffffffffff160217905550808273ffffffffffffffffffffffffffffffffffffffff168473ffffffffffffffffffffffffffffffffffffffff167fddf252ad1be2c89b69c2b068fc378daa952ba7f163c4a11628f55a4df523b3ef60405160405180910390a46113e6838383600161195b565b505050565b606060096114187f000000000000000000000000000000000000000000000000000000000000000061143d565b604051602001611429929190612cc0565b604051602081830303815290604052905090565b60606000600161144c84611961565b01905060008167ffffffffffffffff81111561146b5761146a6122a2565b5b6040519080825280601f01601f19166020018201604052801561149d5781602001600182028036833780820191505090505b509050600082602001820190505b600115611500578080600190039150507f3031323334353637383961626364656600000000000000000000000000000000600a86061a8153600a85816114f4576114f3612d02565b5b049450600085036114ab575b819350505050919050565b60006002600083815260200190815260200160002060009054906101000a900473ffffffffffffffffffffffffffffffffffffffff169050919050565b611562828260405180602001604052806000815250611ab4565b5050565b6000600660009054906101000a900473ffffffffffffffffffffffffffffffffffffffff16905081600660006101000a81548173ffffffffffffffffffffffffffffffffffffffff021916908373ffffffffffffffffffffffffffffffffffffffff1602179055508173ffffffffffffffffffffffffffffffffffffffff168173ffffffffffffffffffffffffffffffffffffffff167f8be0079c531659141344cd1fd0a4f28419497f9722a3daafe3b4186f6b6457e060405160405180910390a35050565b8173ffffffffffffffffffffffffffffffffffffffff168373ffffffffffffffffffffffffffffffffffffffff160361169a576040517f08c379a000000000000000000000000000000000000000000000000000000000815260040161169190612d7d565b60405180910390fd5b80600560008573ffffffffffffffffffffffffffffffffffffffff1673ffffffffffffffffffffffffffffffffffffffff16815260200190815260200160002060008473ffffffffffffffffffffffffffffffffffffffff1673ffffffffffffffffffffffffffffffffffffffff16815260200190815260200160002060006101000a81548160ff0219169083151502179055508173ffffffffffffffffffffffffffffffffffffffff168373ffffffffffffffffffffffffffffffffffffffff167f17307eab39ab6107e8899845ad3d59bd9653f200f220920489ca2b5937696c318360405161178b9190611f8a565b60405180910390a3505050565b6117a38484846110f2565b6117af84848484611b0f565b6117ee576040517f08c379a00000000000000000000000000000000000000000000000000000000081526004016117e590612e0f565b60405180910390fd5b50505050565b60008073ffffffffffffffffffffffffffffffffffffffff166118168361150b565b73ffffffffffffffffffffffffffffffffffffffff1614159050919050565b600181111561195557600073ffffffffffffffffffffffffffffffffffffffff168473ffffffffffffffffffffffffffffffffffffffff16146118c95780600360008673ffffffffffffffffffffffffffffffffffffffff1673ffffffffffffffffffffffffffffffffffffffff16815260200190815260200160002060008282546118c19190612e2f565b925050819055505b600073ffffffffffffffffffffffffffffffffffffffff168373ffffffffffffffffffffffffffffffffffffffff16146119545780600360008573ffffffffffffffffffffffffffffffffffffffff1673ffffffffffffffffffffffffffffffffffffffff168152602001908152602001600020600082825461194c91906128ae565b925050819055505b5b50505050565b50505050565b600080600090507a184f03e93ff9f4daa797ed6e38ed64bf6a1f01000000000000000083106119bf577a184f03e93ff9f4daa797ed6e38ed64bf6a1f01000000000000000083816119b5576119b4612d02565b5b0492506040810190505b6d04ee2d6d415b85acef810000000083106119fc576d04ee2d6d415b85acef810000000083816119f2576119f1612d02565b5b0492506020810190505b662386f26fc100008310611a2b57662386f26fc100008381611a2157611a20612d02565b5b0492506010810190505b6305f5e1008310611a54576305f5e1008381611a4a57611a49612d02565b5b0492506008810190505b6127108310611a79576127108381611a6f57611a6e612d02565b5b0492506004810190505b60648310611a9c5760648381611a9257611a91612d02565b5b0492506002810190505b600a8310611aab576001810190505b80915050919050565b611abe8383611c96565b611acb6000848484611b0f565b611b0a576040517f08c379a0000000000000000000000000000000000000000000000000000000008152600401611b0190612e0f565b60405180910390fd5b505050565b6000611b308473ffffffffffffffffffffffffffffffffffffffff16611eb3565b15611c89578373ffffffffffffffffffffffffffffffffffffffff1663150b7a02611b59610f9c565b8786866040518563ffffffff1660e01b8152600401611b7b9493929190612eb8565b6020604051808303816000875af1925050508015611bb757506040513d601f19601f82011682018060405250810190611bb49190612f19565b60015b611c39573d8060008114611be7576040519150601f19603f3d011682016040523d82523d6000602084013e611bec565b606091505b506000815103611c31576040517f08c379a0000000000000000000000000000000000000000000000000000000008152600401611c2890612e0f565b60405180910390fd5b805181602001fd5b63150b7a0260e01b7bffffffffffffffffffffffffffffffffffffffffffffffffffffffff1916817bffffffffffffffffffffffffffffffffffffffffffffffffffffffff191614915050611c8e565b600190505b949350505050565b600073ffffffffffffffffffffffffffffffffffffffff168273ffffffffffffffffffffffffffffffffffffffff1603611d05576040517f08c379a0000000000000000000000000000000000000000000000000000000008152600401611cfc90612f92565b60405180910390fd5b611d0e816117f4565b15611d4e576040517f08c379a0000000000000000000000000000000000000000000000000000000008152600401611d4590612ffe565b60405180910390fd5b611d5c600083836001611835565b611d65816117f4565b15611da5576040517f08c379a0000000000000000000000000000000000000000000000000000000008152600401611d9c90612ffe565b60405180910390fd5b6001600360008473ffffffffffffffffffffffffffffffffffffffff1673ffffffffffffffffffffffffffffffffffffffff16815260200190815260200160002060008282540192505081905550816002600083815260200190815260200160002060006101000a81548173ffffffffffffffffffffffffffffffffffffffff021916908373ffffffffffffffffffffffffffffffffffffffff160217905550808273ffffffffffffffffffffffffffffffffffffffff16600073ffffffffffffffffffffffffffffffffffffffff167fddf252ad1be2c89b69c2b068fc378daa952ba7f163c4a11628f55a4df523b3ef60405160405180910390a4611eaf60008383600161195b565b5050565b6000808273ffffffffffffffffffffffffffffffffffffffff163b119050919050565b6000604051905090565b600080fd5b600080fd5b60007fffffffff0000000000000000000000000000000000000000000000000000000082169050919050565b611f1f81611eea565b8114611f2a57600080fd5b50565b600081359050611f3c81611f16565b92915050565b600060208284031215611f5857611f57611ee0565b5b6000611f6684828501611f2d565b91505092915050565b60008115159050919050565b611f8481611f6f565b82525050565b6000602082019050611f9f6000830184611f7b565b92915050565b600081519050919050565b600082825260208201905092915050565b60005b83811015611fdf578082015181840152602081019050611fc4565b60008484015250505050565b6000601f19601f8301169050919050565b600061200782611fa5565b6120118185611fb0565b9350612021818560208601611fc1565b61202a81611feb565b840191505092915050565b6000602082019050818103600083015261204f8184611ffc565b905092915050565b6000819050919050565b61206a81612057565b811461207557600080fd5b50565b60008135905061208781612061565b92915050565b6000602082840312156120a3576120a2611ee0565b5b60006120b184828501612078565b91505092915050565b600073ffffffffffffffffffffffffffffffffffffffff82169050919050565b60006120e5826120ba565b9050919050565b6120f5816120da565b82525050565b600060208201905061211060008301846120ec565b92915050565b61211f81612057565b82525050565b600060208201905061213a6000830184612116565b92915050565b612149816120da565b811461215457600080fd5b50565b60008135905061216681612140565b92915050565b6000806040838503121561218357612182611ee0565b5b600061219185828601612157565b92505060206121a285828601612078565b9150509250929050565b6000806000606084860312156121c5576121c4611ee0565b5b60006121d386828701612157565b93505060206121e486828701612157565b92505060406121f586828701612078565b9150509250925092565b60006020828403121561221557612214611ee0565b5b600061222384828501612157565b91505092915050565b61223581611f6f565b811461224057600080fd5b50565b6000813590506122528161222c565b92915050565b6000806040838503121561226f5761226e611ee0565b5b600061227d85828601612157565b925050602061228e85828601612243565b9150509250929050565b600080fd5b600080fd5b7f4e487b7100000000000000000000000000000000000000000000000000000000600052604160045260246000fd5b6122da82611feb565b810181811067ffffffffffffffff821117156122f9576122f86122a2565b5b80604052505050565b600061230c611ed6565b905061231882826122d1565b919050565b600067ffffffffffffffff821115612338576123376122a2565b5b61234182611feb565b9050602081019050919050565b82818337600083830152505050565b600061237061236b8461231d565b612302565b90508281526020810184848401111561238c5761238b61229d565b5b61239784828561234e565b509392505050565b600082601f8301126123b4576123b3612298565b5b81356123c484826020860161235d565b91505092915050565b600080600080608085870312156123e7576123e6611ee0565b5b60006123f587828801612157565b945050602061240687828801612157565b935050604061241787828801612078565b925050606085013567ffffffffffffffff81111561243857612437611ee5565b5b6124448782880161239f565b91505092959194509250565b6000806040838503121561246757612466611ee0565b5b600061247585828601612157565b925050602061248685828601612157565b9150509250929050565b7f4e487b7100000000000000000000000000000000000000000000000000000000600052602260045260246000fd5b600060028204905060018216806124d757607f821691505b6020821081036124ea576124e9612490565b5b50919050565b7f4552433732313a20617070726f76616c20746f2063757272656e74206f776e6560008201527f7200000000000000000000000000000000000000000000000000000000000000602082015250565b600061254c602183611fb0565b9150612557826124f0565b604082019050919050565b6000602082019050818103600083015261257b8161253f565b9050919050565b7f4552433732313a20617070726f76652063616c6c6572206973206e6f7420746f60008201527f6b656e206f776e6572206f7220617070726f76656420666f7220616c6c000000602082015250565b60006125de603d83611fb0565b91506125e982612582565b604082019050919050565b6000602082019050818103600083015261260d816125d1565b9050919050565b7f4552433732313a2063616c6c6572206973206e6f7420746f6b656e206f776e6560008201527f72206f7220617070726f76656400000000000000000000000000000000000000602082015250565b6000612670602d83611fb0565b915061267b82612614565b604082019050919050565b6000602082019050818103600083015261269f81612663565b9050919050565b600081905092915050565b60006126bc82611fa5565b6126c681856126a6565b93506126d6818560208601611fc1565b80840191505092915050565b7f2e6a736f6e000000000000000000000000000000000000000000000000000000815250565b600061271482856126b1565b915061272082846126b1565b915061272b826126e2565b6005820191508190509392505050565b7f4552433732313a20696e76616c696420746f6b656e2049440000000000000000600082015250565b6000612771601883611fb0565b915061277c8261273b565b602082019050919050565b600060208201905081810360008301526127a081612764565b9050919050565b7f4576656e74206973206e6f74207075626c697368656400000000000000000000600082015250565b60006127dd601683611fb0565b91506127e8826127a7565b602082019050919050565b6000602082019050818103600083015261280c816127d0565b9050919050565b7f41646472657373206e6f742077686974656c6973746564000000000000000000600082015250565b6000612849601783611fb0565b915061285482612813565b602082019050919050565b600060208201905081810360008301526128788161283c565b9050919050565b7f4e487b7100000000000000000000000000000000000000000000000000000000600052601160045260246000fd5b60006128b982612057565b91506128c483612057565b92508282019050808211156128dc576128db61287f565b5b92915050565b60006128ed82612057565b91507fffffffffffffffffffffffffffffffffffffffffffffffffffffffffffffffff820361291f5761291e61287f565b5b600182019050919050565b7f4552433732313a2061646472657373207a65726f206973206e6f74206120766160008201527f6c6964206f776e65720000000000000000000000000000000000000000000000602082015250565b6000612986602983611fb0565b91506129918261292a565b604082019050919050565b600060208201905081810360008301526129b581612979565b9050919050565b60006129c882856126b1565b91506129d482846126b1565b91508190509392505050565b7f4f776e61626c653a206e6577206f776e657220697320746865207a65726f206160008201527f6464726573730000000000000000000000000000000000000000000000000000602082015250565b6000612a3c602683611fb0565b9150612a47826129e0565b604082019050919050565b60006020820190508181036000830152612a6b81612a2f565b9050919050565b7f4f776e61626c653a2063616c6c6572206973206e6f7420746865206f776e6572600082015250565b6000612aa8602083611fb0565b9150612ab382612a72565b602082019050919050565b60006020820190508181036000830152612ad781612a9b565b9050919050565b7f4552433732313a207472616e736665722066726f6d20696e636f72726563742060008201527f6f776e6572000000000000000000000000000000000000000000000000000000602082015250565b6000612b3a602583611fb0565b9150612b4582612ade565b604082019050919050565b60006020820190508181036000830152612b6981612b2d565b9050919050565b7f4552433732313a207472616e7366657220746f20746865207a65726f2061646460008201527f7265737300000000000000000000000000000000000000000000000000000000602082015250565b6000612bcc602483611fb0565b9150612bd782612b70565b604082019050919050565b60006020820190508181036000830152612bfb81612bbf565b9050919050565b60008190508160005260206000209050919050565b60008154612c24816124bf565b612c2e81866126a6565b94506001821660008114612c495760018114612c5e57612c91565b60ff1983168652811515820286019350612c91565b612c6785612c02565b60005b83811015612c8957815481890152600182019150602081019050612c6a565b838801955050505b50505092915050565b7f2f00000000000000000000000000000000000000000000000000000000000000815250565b6000612ccc8285612c17565b9150612cd782612c9a565b600182019150612ce782846126b1565b9150612cf282612c9a565b6001820191508190509392505050565b7f4e487b7100000000000000000000000000000000000000000000000000000000600052601260045260246000fd5b7f4552433732313a20617070726f766520746f2063616c6c657200000000000000600082015250565b6000612d67601983611fb0565b9150612d7282612d31565b602082019050919050565b60006020820190508181036000830152612d9681612d5a565b9050919050565b7f4552433732313a207472616e7366657220746f206e6f6e20455243373231526560008201527f63656976657220696d706c656d656e7465720000000000000000000000000000602082015250565b6000612df9603283611fb0565b9150612e0482612d9d565b604082019050919050565b60006020820190508181036000830152612e2881612dec565b9050919050565b6000612e3a82612057565b9150612e4583612057565b9250828203905081811115612e5d57612e5c61287f565b5b92915050565b600081519050919050565b600082825260208201905092915050565b6000612e8a82612e63565b612e948185612e6e565b9350612ea4818560208601611fc1565b612ead81611feb565b840191505092915050565b6000608082019050612ecd60008301876120ec565b612eda60208301866120ec565b612ee76040830185612116565b8181036060830152612ef98184612e7f565b905095945050505050565b600081519050612f1381611f16565b92915050565b600060208284031215612f2f57612f2e611ee0565b5b6000612f3d84828501612f04565b91505092915050565b7f4552433732313a206d696e7420746f20746865207a65726f2061646472657373600082015250565b6000612f7c602083611fb0565b9150612f8782612f46565b602082019050919050565b60006020820190508181036000830152612fab81612f6f565b9050919050565b7f4552433732313a20746f6b656e20616c7265616479206d696e74656400000000600082015250565b6000612fe8601c83611fb0565b9150612ff382612fb2565b602082019050919050565b6000602082019050818103600083015261301781612fdb565b905091905056fea2646970667358221220d083f00c345bdf1658c0d2fea02e00c1d11b94823c58a89d15a1a2ee6acd304f64736f6c63430008110033",
  "linkReferences": {},
  "deployedLinkReferences": {}
}